:020000041000EA
:1000000000B5324B212058609868022188439860DF
:10001000D860186158612E4B002199600221596106
:100020000121F02299502B49196001219960352056
:1000300000F044F80222904214D00621196600F024
:1000400034F8196E01211966002018661A6600F04E
:100050002CF8196E196E196E052000F02FF8012189
:100060000842F9D1002199601B49196000215960AB
:100070001A491B48016001219960EB211966A021F2
:10008000196600F012F800219960164914480160C1
:100090000121996001BC002800D000471248134993
:1000A000086003C880F30888084703B5996A0420EC
:1000B0000142FBD001200142F8D103BD02B5186610
:1000C0001866FFF7F2FF186E186E02BD00000240BE
:1000D000000000180000070000035F00212200005C
:1000E000F4000018222000A00001001008ED00E03C
:1000F00000000000000000000000000074B24E7A12
:1001000000000420E3010010C3010010E903001007
:10011000C1010010C1010010C1010010C101001097
:10012000C1010010C1010010C10100104503001001
:10013000C1010010C1010010C9030010D503001057
:10014000CD010010CD010010CD010010CD01001037
:10015000CD010010CD010010CD010010CD01001027
:10016000CD010010CD010010CD010010CD01001017
:10017000CD010010CD010010CD010010CD01001007
:10018000CD010010CD010010CD010010CD010010F7
:10019000CD010010CD010010CD010010CD010010E7
:1001A000CD010010CD010010CD010010CD010010D7
:1001B000CD010010CD010010CD010010CD010010C7
:1001C00000BE00BE00BE00BE00BE00BE00F03FF894
:1001D000103800BE00202049086006C881F3088856
:1001E00010471E48006800282DD10CA40ECC002911
:1001F00002D000F010F8F9E719491A4A002000E08F
:1002000001C19142FCD1184988471849884700BE6E
:10021000FDE701C901C29A42FBD370479C930110CC
:10022000C00000202C10002014A3011000000420A6
:100230000000042014A3011000100420001004206A
:100240000000000070470A480EF040FF0047EFF33F
:100250000580C0B27047000008ED00E0000000D04B
:1002600038100020ECB30020CD02001071CC00103B
:1002700057560000F8B5C046F8BC08BC9E4670470B
:10028000F8B5C04610B5064C2378002B07D1054BB6
:10029000002B02D0044800E000BF0123237010BDF2
:1002A000881500200000000084020010044B10B5E7
:1002B000002B03D00349044800E000BF10BDC04636
:1002C000000000008C15002084020010164B002B4B
:1002D00000D1144B9D46402292029A1A9246002168
:1002E0008B460F461348144A121A10F0B9FF0F4BF1
:1002F000002B00D098470E4B002B00D098470020D1
:10030000002104000D000D48002802D00C480CF01C
:10031000B2FC10F027FB2000290008F023FD0CF0B0
:10032000A7FCC046000008000000042000000000F8
:10033000C58C001038100020ECB3002077CC0010E2
:10034000000000007046C0082CD3EFF309808169DB
:1003500002390978002929D101B50FC8B8470CBC6A
:1003600003C29E461E4B06CB91421ED0083B1A602C
:10037000002909D0EFF3098020388863F0C0444693
:100380004D4656465F46F0C0906B1030F0C8A04610
:10039000A946B246BB4680F309882038F0C802203F
:1003A000C0430047EFF30880D1E770470D4A136858
:1003B0009942FAD801B5890053589C460FC8E047C6
:1003C0000CBC10609E46704701B507F041FF03BCAE
:1003D0008E46C7E701B507F0F9FE03BC8E46C1E7BC
:1003E00044040020846D0110102304E0202302E067
:1003F000302300E040239C46F0B404AE7546E80884
:1004000001D3EFF309860E4F0FCE0FC70FBC0FC7F6
:100410004046494652465B460FC71DCE3100A60AEC
:1004200000D304316E0900D248311FC7EFF30980B1
:100430006946EFF3148663C7604601490BF0B4FFC9
:100440005CB3002001480421014B184740060020FE
:10045000DDF0001002B47146490849000956490010
:100460008E4402BC7047C04602B471464908490038
:10047000095C49008E4402BC7047C0460022430814
:100480008B4274D303098B425FD3030A8B4244D35C
:10049000030B8B4228D3030C8B420DD3FF2209029E
:1004A00012BA030C8B4202D31212090265D0030B5D
:1004B0008B4219D300E0090AC30B8B4201D3CB0353
:1004C000C01A5241830B8B4201D38B03C01A524195
:1004D000430B8B4201D34B03C01A5241030B8B4297
:1004E00001D30B03C01A5241C30A8B4201D3CB0282
:1004F000C01A5241830A8B4201D38B02C01A524167
:10050000430A8B4201D34B02C01A5241030A8B4269
:1005100001D30B02C01A5241CDD2C3098B4201D381
:10052000CB01C01A524183098B4201D38B01C01AFF
:10053000524143098B4201D34B01C01A5241030976
:100540008B4201D30B01C01A5241C3088B4201D325
:10055000CB00C01A524183088B4201D38B00C01AD2
:10056000524143088B4201D34B00C01A5241411AF9
:1005700000D20146524110467047FFE701B5002006
:1005800000F0F0F802BDC0460029F7D076E77047CA
:1005900003460B437FD4002243088B4274D30309E4
:1005A0008B425FD3030A8B4244D3030B8B4228D385
:1005B000030C8B420DD3FF22090212BA030C8B42AB
:1005C00002D31212090265D0030B8B4219D300E04B
:1005D000090AC30B8B4201D3CB03C01A5241830BD0
:1005E0008B4201D38B03C01A5241430B8B4201D380
:1005F0004B03C01A5241030B8B4201D30B03C01AA9
:100600005241C30A8B4201D3CB02C01A5241830A22
:100610008B4201D38B02C01A5241430A8B4201D351
:100620004B02C01A5241030A8B4201D30B02C01A7B
:100630005241CDD2C3098B4201D3CB01C01A5241E2
:1006400083098B4201D38B01C01A524143098B426B
:1006500001D34B01C01A524103098B4201D30B0154
:10066000C01A5241C3088B4201D3CB00C01A524179
:1006700083088B4201D38B00C01A524143088B423E
:1006800001D34B00C01A5241411A00D201465241D7
:10069000104670475DE0CA0F00D04942031000D3F6
:1006A0004042534000229C4603098B422DD3030A4B
:1006B0008B4212D3FC22890112BA030A8B420CD35B
:1006C000890192118B4208D3890192118B4204D384
:1006D00089013AD0921100E08909C3098B4201D304
:1006E000CB01C01A524183098B4201D38B01C01A3E
:1006F000524143098B4201D34B01C01A52410309B5
:100700008B4201D30B01C01A5241C3088B4201D363
:10071000CB00C01A524183088B4201D38B00C01A10
:100720005241D9D243088B4201D34B00C01A5241E7
:10073000411A00D20146634652415B10104601D374
:100740004042002B00D54942704763465B1000D3FE
:10075000404201B5002000F005F802BD0029F8D0A4
:1007600016E770477047C046D0400B1CD1409C46EE
:10077000203AD3401843524263469340184370478F
:100780009140031C90409C46203A934019435242AA
:100790006346D340194370478446101C62468C461A
:1007A000191C634600E0C0461FB502F013F800288C
:1007B00001D40021C8421FBD10B501F06BFF4042BB
:1007C000013010BD10B502F005F8002801DB002053
:1007D00010BD012010BDC04610B501F0FBFF002880
:1007E00001DD002010BD012010BDC04610B501F094
:1007F0008DFF002801DC002010BD012010BDC04687
:1008000010B501F083FF002801DA002010BD01209F
:1008100010BDC0468446081C6146FFE71FB500F0C6
:100820002BFD002801D40021C8421FBD10B500F0E7
:10083000ADFC4042013010BD10B500F01DFD002898
:1008400001DB002010BD012010BDC04610B500F036
:1008500013FD002801DD002010BD012010BDC046A1
:1008600010B500F0BBFC002801DC002010BD012009
:1008700010BDC04610B500F0B1FC002801DA002020
:1008800010BD012010BDC0461C2101231B0498424D
:1008900001D3000C10391B0A984201D3000A083911
:1008A0001B09984201D30009043902A2105C4018C8
:1008B0007047C0460403020201010101000000006C
:1008C00000000000002B15D1002A13D1002906DBFF
:1008D00001DC002806D00020C043410802E080214E
:1008E0000906002007B4024801A14018029003BD88
:1008F00075FEFFFF03B4684601B5029800F07EF96B
:10090000019B9E4602B00CBC7047C046002B11D123
:10091000002A0FD1002900D1002802D00021C943AC
:10092000081C07B4024802A14018029003BDC0464B
:1009300035FEFFFF03B4684601B5029800F09CF84D
:10094000019B9E4602B00CBC7047C046F0B5CE4637
:10095000474615042D0C2E0080B50704140C3F0CDF
:100960009946030C7E435D43674363437F19340C10
:10097000E4199C46A54203D980235B029846C444EF
:100980004B4643435143250C36046544360C24043E
:10099000A4195B19591820000CBC90469946F0BD6B
:1009A0009E2110B5C905041CFFF764FF002803D180
:1009B000201C00F0A7FF10BD9E21201CC90500F0DF
:1009C000DDFD00F09FFF80231B069C466044F2E79C
:1009D00070B500220C4B04000D00FFF711FF00283A
:1009E00004D12000290002F033FD70BD064B002227
:1009F0002000290002F0C8F902F02AFD80231B061E
:100A00009C466044F1E7C0460000E04110B500217B
:100A1000041CFFF711FF002803D1201C00F00CF884
:100A200010BD80231B06E01800F006F802000B0042
:100A3000002150429941F3E770B502F0ABFD00226E
:100A40000B4B0D00040001F02DFFFFF7C1FF060066
:100A500002F06EFD0022074B01F024FF02000B00A4
:100A60002000290002F090F9FFF7B2FF310070BDBD
:100A70000000F03D0000F041F0B54F464646D64636
:100A8000C0B5040082B00D00914698468B422FD825
:100A90002CD04146484602F053FE290006002000B3
:100AA00002F04EFE331A9C46203B9A4600D576E073
:100AB0004B46524693401F004B46624693401E00F1
:100AC000AF4228D825D05346A41BBD41002B00DAE5
:100AD0007BE00022002300920193012352469340C1
:100AE0000193012362469340009318E08242D0D9DB
:100AF00000220023009201930A9B002B01D01C606E
:100B00005D600098019902B01CBC90469946A246CF
:100B1000F0BDA342D7D9002200230092019363467F
:100B2000002BE9D0FB079846414672080A437B0830
:100B300066460EE0AB4201D1A2420CD8A41A9D41F8
:100B4000012024196D410021013E24184D41002E41
:100B500006D0AB42EED9013E24196D41002EF8D1EA
:100B600000980199534600196941002B23DB2B00A3
:100B70005246D3402A006446E2401C00534615000A
:100B8000002B2DDB26005746BE403300260067466B
:100B9000BE403200801A994100900191ACE7624654
:100BA00020239B1A4A46DA406146130042468A4097
:100BB00017001F4380E7624620239B1A2A006646DF
:100BC0009A402300F3401343D4E7624620230021D8
:100BD0009B1A0022009101920122DA40019280E7E3
:100BE0002023624626009B1ADE402F00B046664650
:100BF000B74046463B003343C8E7C046F0B583B034
:100C000016001F000090019102F0A6FD04000D00E7
:100C100002000B0030003900FFF798FE009A019B9C
:100C2000121A8B41089920000A604B60290003B01A
:100C3000F0BDC046F8B54746CE4643025B0A4400C5
:100C4000C20F9C464800DD004B02240E5B0A000EDA
:100C500080B5984626009146C90FDB00271A8A42C4
:100C600029D0002F15DD00284AD1002B00D095E0B7
:100C7000ED08FF2C00D188E06B025B0AE6B25B0254
:100C8000F605580A3043D20710430CBC90469946EB
:100C9000F8BD002F00D087E0601CC0B2012800DC46
:100CA000B6E0EE1A720100D5C5E0002E3DD100225B
:100CB00000260023E3E7002F00DC96E000285DD04B
:100CC000FF2C60D08022D20413431B2F00DDECE008
:100CD0002022D21B18009340F8405A1E9341034330
:100CE000ED186B017BD50134FF2C00D1B7E0012258
:100CF00007262A406B089A4D1D4015432E4029E0D7
:100D0000FF2CB5D08022D20413431B2F00DDB2E0AC
:100D10002022D21B19009340F9405A1E93410B43E5
:100D2000ED1A6B015BD5AD01AE093000FFF7ACFDEC
:100D300005388640844265DC041B330020200134E2
:100D4000E340041BA640751EAE41334307261D0039
:100D500000241E4001224B461A40002E04D00F23CF
:100D60002B40042B00D004356B0100D480E7013404
:100D7000E6B2FF2C2FD1FF26002380E7002B52D1B3
:100D8000FF2C00D074E70A00ED08002DF3D080237B
:100D9000DB032B435B025B0AFF2670E7013F002F5A
:100DA000BED0FF2CB1D163E7002C47D0FF2869D01B
:100DB0008024E4047A4225431B2A00DDC5E02C0090
:100DC0002026D440B21A95406A1E954125435D1BEA
:100DD00004008946A5E7AB015B0A50E70024012225
:100DE0004B461A406B07BAD142E7002F3BD1013482
:100DF000E0B201284ADDFF2CBDD00726ED186D08B2
:100E00002E40A7E70723574D241A35401E40A1E77F
:100E1000002C1BD1002D6ED1002B00D19AE00A00CE
:100E20001D003C0024E7013F002F00D158E7FF2CB4
:100E300000D04AE7A7E75E1B894676E7002D1CD164
:100E40000A00FF281FD004001D0011E7002D5DD10E
:100E5000002B17D180230022DB03FF260FE70A00B7
:100E6000FF2600230BE7002C21D1002D66D1FF289F
:100E7000E9D11D0087E7012352E77A1CA7D0FA4386
:100E8000FF2899D10A001D00FF24F1E6002E21D190
:100E9000002D4FD0002B4CD0ED186B019ED5314B5F
:100EA00007362E4001241D4054E7012318E7FF2890
:100EB000DFD08024E4047F4225431B2F4DDC202615
:100EC000F61B2C00B540FC406A1E95412543ED18E9
:100ED000040006E7002DCCD0002B00D153E7802181
:100EE0006046C903084203D04046084200D11D00B5
:100EF0000121114047E7002B00D1B9E6EA1A500161
:100F000025D507265D1B2E40894623E7FF24002BAD
:100F100000D1ADE680226046D203104204D04046A4
:100F2000104201D11D00894601224B46FF241A4080
:100F30009EE62B00DD080A0000249DE67A1CC6D040
:100F4000FF43FF28B9D11D001DE701253FE7151E0E
:100F500000D044E70022002391E60125B7E7C04610
:100F6000FFFFFF7DFFFFFFFBF8B557464E464546A6
:100F7000DE464402E0B546008846640A360EC70FD6
:100F8000002E63D0FF2E24D08023E400DB041C431A
:100F9000002399469B467F3E434642465D02D20F60
:100FA0005B006D0A1B0E9046924665D0FF2B55D014
:100FB00080220021ED00D2047F3B1543F61A434600
:100FC0004A467B400F2A00D98DE06D489200825836
:100FD0009746002C54D108239946063BFF269B4692
:100FE000DAE70025534602291BD0032900D1BFE0D0
:100FF000012928D030007F30002820DD6A0704D086
:101000000F222A40042A00D004352A0103D53000DB
:101010005C4A80301540FE2803DCAC01640AC2B291
:1010200001E0FF2200246402D205600ADB071043BE
:1010300018433CBC90469946A246AB46F8BD0122F7
:10104000101A1B287CDD00220024ECE7002C1DD1A7
:1010500004239946033B00269B469DE7FF3E002D57
:1010600020D1022143464A467B400A430F2AD8D862
:101070004548920082589746002D19D10121F1E789
:101080000C239946093BFF269B4685E72000FFF786
:10109000FBFB7626431F9C4000237642361A994676
:1010A0009B4679E74A4603231A439146032186E784
:1010B0002800FFF7E9FB431F36189D4076360021D4
:1010C0007DE780240023E403FF22ACE70025802392
:1010D000DB031C4228D01D4226D12B435C02640A4C
:1010E0004346FF229FE762016C01A24224D21B21EA
:1010F0000025013E012710006D005200002801DB91
:10110000944201D8121B3D4301390029F3D1140048
:10111000621E944125436DE7BA4659462500534661
:10112000022900D061E77CE78023DB031C436402D3
:10113000640A3B00FF2276E7121B1A210125D9E73A
:101140009E362A00B5402C00C240651EAC411443B7
:10115000620704D00F222240042A00D00434620126
:1011600003D4A401640A00225DE7012200245AE7A7
:101170008024E4032C436402640AFF2253E7C04640
:1011800094640110FFFFFFF7D464011070B54200B2
:101190004E024C0045026D0A120EC30F760A240E51
:1011A000C90FFF2A0FD0FF2C11D00120A24200D07E
:1011B00070BDB542FCD18B420DD0002AF8D1280079
:1011C000451EA841F4E70120002DF1D1EBE70120F5
:1011D000002EEDD1E9E70020EAE7C04670B54A00ED
:1011E0004E02450244006D0A240EC30F760A120E09
:1011F000C90FFF2C15D0FF2A0ED0002C15D1002AC4
:1012000001D1002E1CD0002D14D08B4227D00220FB
:10121000013B1840013870BD002EEED00220404244
:10122000F9E7002DFAD1FF2A0ED0002A0ED1002EA8
:10123000EDD00BE001230139994308000130EAE7C2
:101240000020002DE7D0E2E7002EE7D18B42DED16F
:10125000944205DD0221581E08400138DBE70024D6
:10126000A24204DCB542D2D80020B542D3D2581EE7
:10127000012398430130CEE730B5420044024D02CD
:10128000C30F4800640A120E6D0A000EC90FFF2A30
:1012900012D0FF280CD0002A12D1002819D1002D1D
:1012A00017D1002C2BD00220013B1840013826E03A
:1012B000002DF0D0022022E0002CFBD1FF281FD00F
:1012C00000281FD1002D1DD10220013B18400138FC
:1012D00015E0002C0ED08B42E5D10022904204DCB8
:1012E000AC42E0D80020AC4209D2581E01239843FA
:1012F000013004E00123013999430800013030BD79
:10130000002DD7D18B42CED18242E7DD0221581E7B
:1013100008400138F3E7C046F0B54E46574645460B
:10132000DE46E0B543025B0A450083B00F1C9946D8
:101330002D0EC60F002D57D0FF2D24D08020DB00AE
:10134000C0041843002381469A469B467F3D7C0299
:101350007A00FB0F640A120E984623D0FF2A4BD066
:10136000E30080240020E4047F3A1C43AD186B1C8A
:1013700047460193534677403A000F2B48D87D49A2
:101380009B00CB589F46002B00D085E008339A463F
:10139000063B9B467C027A00FB0FFF25640A120E77
:1013A0009846DBD1002C00D090E0524601231A432E
:1013B00092460120DBE74C4658461700022824D00D
:1013C000032800D1CFE00022002301284DD158028C
:1013D000D205400AFF071043384303B03CBC904697
:1013E0009946A246AB46F0BD002B5BD104239A463A
:1013F000033B00259B46AAE7FF35002C60D15246EF
:1014000002231A4392460220B1E7FF220023DEE7BF
:101410004B461B0C9C464B462604360C1804614672
:101420003300220C6446000C43434E435043544364
:1014300080191A0C1218964203D9802149028C4651
:1014400064441B041B0C1004C01883015E1EB341CE
:10145000800E1843130C1B199B0103431C0023012E
:1014600079D5012362081C401443019A7F32002A77
:101470004DDD630704D00F232340042B00D0043438
:10148000230103D53C4B019A1C408032FE2ABCDC70
:10149000A3015B0AD2B29AE70C239A46093BFF25C7
:1014A0009B4654E71800FFF7EFF94A46431F76259D
:1014B0009A4000236D4291462D1A9A469B4646E774
:1014C000524603231A439246032050E72000FFF7B9
:1014D000DBF9431F2D1A9C40763D002047E780230F
:1014E0000027DB03FF2272E7424666E74C463200E4
:1014F000584662E780234A46DB031A4222D01C4248
:1015000020D123435B025B0A4746FF225FE70123AA
:101510009A1A1B2A21DC23000199D3409E318C406A
:101520001A0023005C1EA34113435A0704D00F2264
:101530001A40042A00D004335A0111D49B015B0ADB
:10154000002244E780234A46DB0313435B025B0A25
:101550003700FF223BE7019587E70022002336E7AB
:101560000122002333E78023DB0323435B025B0A72
:10157000FF222CE714650110FFFFFFF7F8B547467F
:10158000CE464400C20F80B547024802400A844656
:10159000664648007F0A240EF60025009046FB00B0
:1015A000000EC90FB146FF2800D185E00126714029
:1015B000261A914257D0002E43DD002800D07FE04C
:1015C0004946002900D1AAE0013E002E00D0F7E0F4
:1015D0005B1A5A0100D48BE09B019C092000FFF7A5
:1015E00053F905388440854200DDD3E0451B2300D4
:1015F00020200135EB40451BAC40621E9441234343
:10160000072400251C40012241460A40002C04D03A
:101610000F211940042900D00433590100D480E07F
:101620000135ECB2FF2D00D0A3E0FF2400235B02C4
:10163000E405580AD207204310430CBC9046994653
:10164000F8BD002E74D1601CC0B2012800DCA7E0F8
:101650004A469C1A620100D5B6E0002CBED1002299
:1016600000240023E3E7002E00DC85E0002846D0BC
:10167000FF2C49D080224846D204104381460122E3
:101680001B2E09DC20204C46801B84404A4620004B
:10169000F240441EA04102439B185A0128D501354F
:1016A000FF2D00D1A8E00122072494491A405B08CD
:1016B0000B4013431C40A6E7002E00D078E775E7E7
:1016C000FF2C54D080224946D2041143894601227E
:1016D0001B2E09DC20214846891B88404A46010010
:1016E000F240481E81410A439B1A5A0100D573E714
:1016F000012241460A40590700D089E711E04846D7
:10170000002858D1FF2C0CD1DB08002B00D18CE72E
:101710008020C00303435B025B0AFF2487E7FF2CA2
:1017200025D0DB08FF2DF0D05B025B0AECB27EE730
:10173000002C4DD0FF2818D08024E40472422343AB
:101740001B2A00DDC4E01C002025D440AA1A9340C7
:101750005A1E934123434A460500D31A884638E768
:10176000721CF8D0F243FF28EAD10A004B46FF254D
:10177000D7E79B015B0A5AE7002E41D1651CE9B20D
:10178000012945DDFF2D00D14FE707244B445B08BD
:101790001C4038E707225A4B2D1A2340144032E7E9
:1017A000002C1DD1002B7AD14B46002B00D191E0AB
:1017B0000A000025B5E7013E002E19D14B446CE725
:1017C000FF2C84D1FF25ACE74A468846D41A05E7AA
:1017D000002BC5D10A00FF28C8D005004B46A0E762
:1017E000002B49D14B46002B77D00A00FF2598E704
:1017F000FF2C00D043E787E70A00FF24002316E709
:10180000002C15D1002B57D1FF28E6D14B467BE7A2
:10181000002C20D1002B57D04946002953D04B44EF
:101820005A0168D50724364A1C4001251340EAE6D0
:10183000FF28EBD08022D204764213431B2E53DCC8
:101840002025AD1B1A00AB40F2405C1EA3411343A0
:101850004B44050021E7002BD8D04946002900D190
:1018600052E78021C9030F4200D14DE7604608428C
:1018700000D049E74B4647E74846FF25002800D1FE
:101880004FE78022D203174204D06046104201D1B4
:101890004B46884601224146FF250A4041E748461B
:1018A00000281FD01A1A500120D54A460724D31AFF
:1018B0001C4088460025A6E6741CC9D0F643FF28C4
:1018C000BCD14B4620E799464B460025DB082BE769
:1018D000012340E700220023A9E680230022DB0346
:1018E000FF24A4E600251CE70123B1E7002AF1D07C
:1018F00013000025FCE60025FAE6C046FFFFFF7D49
:10190000FFFFFFFB41024200C30F490A120E0020F5
:101910007E2A0DD99D2A0CD8802000040143952AE7
:101920000ADC9620821AD1404842002B00D10800E0
:101930007047034A9818FBE7963A9140F4E7C0468F
:10194000FFFFFF7F70B500283DD0C317C5185D406D
:10195000C40F2800FEF798FF9E22121A962A07DC71
:10196000D2B2082833DD083885406802400A23E0F7
:10197000992A0BDD052329001B1AD94003001B33CC
:101980009D402B005D1EAB4119430D00052801DD74
:10199000431F9D402B000F490B406E0709D00F26B7
:1019A0003540042D05D004335D0102D59F220B4044
:1019B000121A9B01580AD2B24002D205400AE4072B
:1019C0001043204370BD002400220020F4E7680289
:1019D000400AF1E7FFFFFFFB70B5041E34D0FEF7AD
:1019E00053FF9E22121A962A07DCD2B208282EDD57
:1019F000083884406002400A21E0992A09DD03008A
:101A000021001B3399404B1E994105231B1ADC40D2
:101A10000C43052801DD431F9C4023000D490B406A
:101A2000650709D00F252C40042C05D004335C0138
:101A300002D59F220B40121A9B01580AD2B24002D3
:101A4000D205400A104370BD00220020F7E7600273
:101A5000400AF4E7FFFFFFFBF0B54F464646D64687
:101A60000C000903C0B5490A470F5E0039431F0344
:101A7000DB0F9C4665007B0A570F1F436D0DE40F7B
:101A8000760DA146C000B846D200AB1B64457BD0A2
:101A9000002B5FDD002E00D0A4E03E00164300D1F5
:101AA00012E15E1E002E00D09EE1871A4346B84226
:101AB00080410125C91A4042091A0B0200D431E1C4
:101AC00049024E0A002E00D16EE13000FEF7DCFE26
:101AD0000300083B1F2B00DD61E120223900D21AF0
:101AE0009E40D1409F400E439D4200DD51E15D1B71
:101AF0006B1C1F2B00DD7CE12021C91A3D0030004A
:101B00008F408840DD40791E8F41310007222843F5
:101B1000D940002507433A40002A09D00F233B4013
:101B2000042B05D03B1DBB42BF417F42C9191F009A
:101B30000B0200D426E26A1CC64B55056D0D9A4275
:101B400000D106E1C44AFF080A40530752023B4352
:101B5000120B8EE0002B00D0B8E06B1C5B055B0D18
:101B6000012B00DC30E1871A4346B842B641CB1A5C
:101B700076429E1B330200D54CE13B003343A1D19A
:101B800000220024002570E0002B00DCE5E0002EA0
:101B900000D183E0AF4EB54260D080263604374393
:101BA000B846382B00DC3EE1434613431F007A1E43
:101BB00097413F1887428041404209180B0200D4E8
:101BC000B0E0A44B01359D4200D1C3E0A24A7B089E
:101BD0000A4001210F401F435108D30707221F432A
:101BE0003A4099E79B4EB54238D0802636043743B9
:101BF000B846382B00DDDCE01F2B00DC30E11E0096
:101C00004746203EF740BC46202B04D04026F31A1E
:101C100046469E403243170063467A1E97411F4353
:101C2000CCE0002B00D104E24346134300D159E13C
:101C30004B07C00818438023C9081B03194208D06A
:101C40004546ED081D4204D14346D00859070843D4
:101C50002900420FC9007F4D1143C0004B07CA083D
:101C60007C49C00803438D4268D012036D05120BF6
:101C70006D0D002112031800130B0A0D12051A43F3
:101C8000764B2D0513402B435B00E4075B08234391
:101C900019001CBC90469946A246F0BD3E00164372
:101CA00012D05E1E002E00D000E1871887428041CE
:101CB00041444042091801250B0233D5022585E72E
:101CC00064463300414610001D00C7E7002D00D0D8
:101CD000DAE00C000443F3D05C1C00D19FE15D4CC2
:101CE000A64200D12FE1DB43382B00DD66E11F2B3C
:101CF00000DD83E120240500E41A0F00DD40D94017
:101D0000A0404346A7405B1A441EA04198462F437B
:101D10003843171ABA42924143465242991A6446CE
:101D20003500CAE607223A40002A00D0F6E64B0703
:101D3000CA084849FF083B438D4296D11900114318
:101D400000D19EE1802109030A431203120B414D89
:101D50008FE71500002200238BE7002B00D0C7E09F
:101D60006B1C5F057F0D012F00DCF1E0394DAB42AC
:101D700000D1B9E085180A008542894142444942B0
:101D800051180722CF076D082F4349083A401D001C
:101D9000C2E607223049ED1A31403A40BCE63E0027
:101DA0002838864000279FE63800FEF76DFD20307A
:101DB0008EE6434613431F007A1E9741C71BB84265
:101DC00080414042091A78E60E003B000643134367
:101DD000002D61D1002E00D0F4E0002B00D11BE1DA
:101DE00064463900100039E71A4FBB427AD03300FD
:101DF000FFE630001F3DE840202B03D04021CB1AE6
:101E00009E4037437B1E9F41072207433A400021F3
:101E1000002589E7171A4346BA42B641591A764255
:101E20008E1B64464EE61F2B00DDADE020264746A4
:101E3000F61AB740B9461700B246DF404E463E4359
:101E400037005646B240561EB24117434246DA406A
:101E50008918AEE6FF070000FFFF7FFFFFFF0F803E
:101E600020264746F61AB740B9461700B246DF406B
:101E70004E463E4337005646B240561EB2411743C7
:101E80004246DA40891A99E77F4CA6425BD080240B
:101E900024045B42214327E7002E0CD1002B00D104
:101EA000CBE0644639001000774DD7E6764FBB4251
:101EB00018D0330075E6002B14D04B07C008184328
:101EC0008023C9081B03194207D0FC081C4204D117
:101ED0007907D0080843E14621004C46420FC9006B
:101EE0001143C000684DB9E61D0000220023C0E682
:101EF000002D5BD10D00054300D1E2E65D1C00D151
:101F0000B0E0614DAE421FD0DB43382B71DC1F2B9C
:101F100000DD96E020250F00ED1AAF40B94607001E
:101F2000AA46DF404D463D432F005546A840D940C4
:101F3000451EA84188440743BF1897429241514229
:101F4000414435003AE6644635004146100085E6D6
:101F50000B000343002D00D063E6002BF5D0434671
:101F6000134300D17AE68718874280410722414413
:101F7000404209183A400B0200D4D5E6434B0135E4
:101F80001940C9E5380069E61E004746203EF74083
:101F9000BC46202B04D04026F31A46469E403243CE
:101FA000170063467A1E97411F4302E6364DAE4244
:101FB000CAD080252D045B422943A6E70843411E71
:101FC0008841A6E6002B00D148E6871A4346B8426E
:101FD000B641CB1A76429E1B33024BD5171A4346A5
:101FE000BA429241591A5242891A072264463A402B
:101FF00092E501430F00791E8F419DE71C000F0001
:10200000203CE740202B03D04024E31A99400843AA
:10201000411E884138437CE60022002425E6171A39
:102020004346BA429241591A5242891A64463500CF
:1020300043E541461000144D10E6802200241203AF
:1020400080E61D000F00203DEF40BC46202B03D052
:102050004025EB1A9940084307006346781E8741E4
:102060001F4369E7871897429B4141445B42C91867
:102070003500A3E53B003343CED0072231003A4080
:1020800052E600231A00F4E5FF070000FFFF7FFF80
:10209000F0B55746DE464E464546E0B58346070056
:1020A0000E03480085B092461C00360B400DCD0F44
:1020B000002800D19DE0954B984239D08023F6004E
:1020C0001B041E43924A7B0F3343994694460300F8
:1020D0006344009300230026FF00029323031B0B9D
:1020E00098466300E40F52465B0D019400D1B3E0C3
:1020F00086498B4200D19EE04246D10080221204E4
:102100000A435146490F11438B46814952468C463A
:1021100000996344CB1A0021D20000932B00634046
:102120009A460F2E00D905E17A4BB6009B599F467F
:102130005B463343994600D0B8E0022308260027C7
:1021400000900293CAE7CB463A0002990195019BA1
:102150009A46022927D0032900D180E2012944D0E0
:102160006D49009B8C4663441C00002C38DD5307EE
:1021700000D013E2D2085B46DB0109D55946674B14
:1021800019408B468021C9008C46009B63441C008B
:10219000634B9C4207DC5B4664055F075B021743A9
:1021A0001B0B620D02E000230027584A00211B038D
:1021B0001C0B0B0D1B05234314055A4A3800134012
:1021C0001C4353466400DB0764081C43210005B030
:1021D0003CBC90469946A246AB46F0BD0122524215
:1021E00001231B1B382B00DCADE10022002300275C
:1021F000DCE75B46334399465ED0002E00D18AE18E
:102200003000FEF741FB03000B3B1C2B00DD7BE1A4
:102210001D22D31A5A460100DA4008398E401300B5
:102220005F46334399468F403F4B00261B1A00936D
:102230000023029352E7414653460B433B499B46DA
:102240008C46009B634400935B46002B3BD10223EA
:1022500000221E43022161E7434613439B4637D0C9
:102260004346002B00D162E14046FEF70DFB030020
:102270000B3B1C2B00DD53E102004146083A914024
:1022800088461D21CB1A5146D9400B0041460B43CD
:102290009B46534693401A00009B25499C46604448
:1022A00003008C4663440093002137E70323B146C3
:1022B00000900C26029311E70023009301330426BB
:1022C000002702930AE70323C3461E43032125E7A1
:1022D00001331E430022012120E700239A46802378
:1022E00000271B03094A61E7802349461B03194263
:1022F00000D1E2E05946194200D0DEE00B431B0357
:1023000017001B0BA246014A50E7C046FF0700001A
:1023100001FCFFFF54650110FF030000FFFFFFFEFB
:10232000FE070000FFFF0F800DFCFFFF01F8FFFF1D
:10233000F3030000D94500D9CBE000D1C6E03C0052
:1023400048460027009B013B00935B46160E1B028C
:102350001E431302984633041B0C9946310C01911D
:10236000FEF712F94A4642430B04210C05001943BB
:102370008A4207D98919013D8E4203D88A4201D980
:10238000851E8919881A0199FEF7FEF809048C4602
:102390004A46210464464243090C030021438A4211
:1023A00004D98919013B8E4200D8F1E02D041D4368
:1023B000AB464346891A4246280C12041D0C5B4664
:1023C000140C22001B041B0C5A4303946B4344431C
:1023D000029568431B19150CEB189C4203D9802405
:1023E0006402A44660441C0C15041B042D0C201828
:1023F0005D19814277D373D00C1AA24A7D1BAF427C
:10240000BF419446009B7F426344E01B1C00864210
:1024100000D1DBE00199FEF7B7F84A4642430B04CE
:10242000290C070019438A4207D98919013F8E42B6
:1024300003D88A4201D9871E8919881A0199FEF7A3
:10244000A3F809044A46894629044D464243090C2B
:10245000030029438A4207D98919013B8E4203D8D8
:102460008A4201D9831E89193F04891A3A00039FC1
:102470001A43380013041B0C584381460298150C6C
:102480006F43434345434846000C8446DB1963448D
:102490009F4203D9802040028446654448461F0C71
:1024A00000041B04000C7D191818A94200D284E016
:1024B00000D17FE001231A4357E680234A461B03DD
:1024C00013431B031B0BAA466F4A6FE6BA4200D99F
:1024D00035E74B46DC0758087B081C43FF0734E709
:1024E0000024AF4289D247444745A4415B46644239
:1024F000A4196418013BA6421ED2A0426DD800D197
:10250000B6E0241A9B4678E703005A46283B9A40D7
:102510000027914688E65846FEF7B6F9203072E665
:1025200003005246283B9A4093460022B4E65046A8
:10253000FEF7AAF920309AE6A642E2D1B845DCD9E6
:10254000341A9B4659E71F2B65DC504C0099A44672
:102550005C46614408008C4011008240D940501E06
:1025600082410C4314435A46DA401300620709D0F3
:102570000F222240042A05D02200141D94428941D2
:1025800049425B181A0262D50122002300270DE69A
:102590008A4200D80AE7831E891907E70F231340F0
:1025A000042B00D1E6E5171D9742924153429B440C
:1025B000FA08E0E5002800D1D7E57118531EB142B2
:1025C00027D3A94215D358D01A0073E7002B00DC9B
:1025D00004E6012300229B44CDE5022347444745FE
:1025E00089415B429C46494289190C19E344241AEB
:1025F00003E743465F0047459B41B8465B429E194F
:10260000023A8919A94200D054E7404500D051E769
:10261000ABE51A00F6E71F215F4649420C1BE74075
:10262000202B07D01A49009B8C46634418005B4658
:1026300083401A43501E82413A4307270023174024
:1026400009D00F21002311401400042995D1220044
:102650005F075B021B0BD20817430022A6E580230D
:1026600059461B030B431B0317001B0B064A9DE532
:10267000BD42B2D89B460024BFE68045B9D31A00BC
:10268000C3E7C046FF030000FF0700001E04000070
:102690003E040000F0B54F464646D6468446C0B5D7
:1026A0008046194E18030F034D00000B5C00824654
:1026B0003F0B6D0DC90F9146640DDB0F0120B54234
:1026C0000AD0B44203D0A54201D157450CD01CBC5E
:1026D00090469946A246F0BD66463E43F7D1AC42CD
:1026E000F5D154461443F2D10120C845EFD19942A7
:1026F00007D0002DEBD163461F433800471EB84179
:10270000E5E70020E3E7C046FF070000F0B54F46CD
:102710004646D6464D00C0B50E03C90F8A462C4921
:102720001F035C008046360B6D0D91463F0B640D18
:10273000DB0F8D421ED08C4216D0002D1ED13043AF
:102740008446002C01D13A4323D06246002A1AD095
:102750009A4529D0514602200139084001381CBC55
:1027600090469946A246F0BD39001143E5D00220BB
:102770004042F4E73043FAD1AC420FD0002C0FD1E5
:102780003A43E7D00CE00122013B934318000130AB
:10279000E5E763460020002BE1D0DBE73A43E6D1D2
:1027A0009A45D7D1A542D5DCA54205DBBE42D1D89A
:1027B00008D00020BE42D2D25046012301389843AF
:1027C0000130CCE7C845C5D80020C845F4D3C6E7DA
:1027D000FF070000F0B54F464646D6464D00C0B54F
:1027E0000E03C90F8A462E491F035C008046360B34
:1027F0006D0D91463F0B640DDB0F8D4218D08C425E
:1028000011D0002D18D130438446002C1ED13A43FC
:102810001CD163460020002B30D0514602200139E4
:10282000084001382AE039001143EAD0022025E0AF
:102830003043FBD1AC4226D0002C26D13A4324D1E0
:102840005146022001390840013817E06246002A4B
:102850000FD09A45E1D1A54205DBBE42DDD819D0A3
:102860000020BE420AD2504601230138984301306D
:1028700004E00122013B9343180001301CBC904648
:102880009946A246F0BD3A43D0D19A45C5D1A5425A
:10289000C3DCE0E7C845C0D80020C845E3D3EDE776
:1028A000FF070000F0B55746DE464E464546E0B508
:1028B000834606000F03480087B092461D003F0B79
:1028C000400DCC0F002800D16FE0DE4B984238D08D
:1028D0008023FF001B041F43730F3B430193DA4B1C
:1028E0000027994600239B46F60081442B0369008C
:1028F0001B0B52469846490DED0F002900D185E08B
:10290000D04B994200D173E04346DA0080231B0488
:1029100013435246CC48520F84461343524600207C
:102920006144D20089442100694000918C46012114
:1029300049448A460F2F00D990E0C449BF00CF59BF
:10294000BF465B463B43019300D06AE10223082760
:10295000002681469B46C9E732005846019B6146E6
:102960000091022800D175E0032800D1FEE1012882
:1029700000D02CE100230027002600253F032A0D6C
:102980003F0BB34812053A4302401B051343009A1C
:102990005B00D1075B080B433000190007B03CBC5B
:1029A00090469946A246AB46F0BD5B463B43019339
:1029B00000D12FE1002F00D1A5E13800FDF764FF21
:1029C00003000B3B1C2B00DD96E11D22D31A5A4657
:1029D0000100DA405E4608398F4013008E403B43C9
:1029E00001939C4B00271B1A994600239B467DE7C9
:1029F000414653460B4393498C46E144002B00D09B
:102A00001AE102220220174300228CE7134300D16F
:102A10000DE14346002B00D181E14046FDF734FF34
:102A200002000B3A1C2A00DD72E10100434608391E
:102A30008B4098461D239A1A5346D3401A004346AA
:102A4000134352468A404946081A824989468144BE
:102A5000002068E77B4B002700268EE7140C120449
:102A6000120C1100370C3604350C794328008C46C3
:102A70002E0060436044834656432100300C80465C
:102A80005846794340440291844506D988468021BE
:102A900049028C46E044414602913604010C360C52
:102AA00000048B4681191E0C1B041B0C039119009A
:102AB00079438C46280075436544A8465843050C65
:102AC00045447743A94203D9802149028C46674493
:102AD000290C8C4639000004000C2D042D1861448B
:102AE000AB4405915946049101990F043F0C080C21
:102AF000390051434243904602008C46090C8B46F4
:102B000062437C4344445C44A04503D9802149028C
:102B100088464244210C884661460904090C8C46CB
:102B200039005943434370437E430F0CF618240485
:102B3000BE19644442448C46B34203D980235B02ED
:102B400098464044029B61469846049B37044344A0
:102B50009B46AB45AD416B420D0405992D0C8C464F
:102B60007F196744FD18A8465D462D19A542A4416A
:102B700093466442A446C344DC448F42BF41984517
:102B80009B4193459241A445A4415B427F421F4330
:102B9000360C52426442BF192243BF1862463818AD
:102BA0004302D20D039913436A020A43501E824125
:102BB0006146ED0D2A434E023243D90100D4B3E001
:102BC0000126500832400243DE0732435B08224CA4
:102BD0005444002C62DD510709D00F201040042816
:102BE00005D0101D9042924152429B180200D9011B
:102BF00004D580241948E400034054441848844212
:102C000000DD27E75E075B02D2081F0B6305164352
:102C10005B0DB2E6002399460133042700269B464C
:102C200064E60323019781460C279B465EE601225A
:102C300001201743002276E6032303201F43434667
:102C400071E6C046FF07000001FCFFFF946501101C
:102C5000FFFF0F800DFCFFFFFF030000FFFFFFFEE3
:102C6000FE0700000023802700933F030026434B0C
:102C700083E6019B3200A446584670E6AC466EE6F9
:102C8000802701993F0339422DD03B422BD11F436E
:102C90003F033F0B00951600384B6EE601252D1BB8
:102CA000382D00DD66E61F2D40DC35481C00504401
:102CB000160082408440EE40501E8241344314434B
:102CC000EB40620709D00F222240042A05D02200DF
:102CD000141D9442804140421B181A023ED5012324
:102CE0000027002649E68027019B3F031F433F033F
:102CF0003F0B0094214B40E603005A46283B9A4084
:102D0000002601926DE65846FDF7BEFD203057E6DD
:102D100003005246283B9A401300002293E6504697
:102D2000FDF7B2FD20307BE6CA4650E71F201E00AB
:102D30004042041BE640202D03D0124C5444A340D3
:102D40001A43501E8241324307260027164009D0FD
:102D50000F200023104014000428B9D122005E0780
:102D60005B021F0BD2081643002306E680273F03B1
:102D70001F433F033F0B1600004BFEE5FF0700001B
:102D80001E0400003E040000F8B557464E46454676
:102D9000DE460C000903E0B5490A460F5F003143E7
:102DA0001E03DB0F760A9B46530F3343C84E650064
:102DB000C000E40FD2006D0DA24681467F0D9C46F7
:102DC0009046B74200D1B9E05B46012673409B466E
:102DD000EE1BA34500D183E0002E63DD002F00D061
:102DE000B1E06346134300D123E1731E002B00D0F2
:102DF000BAE1861A6346B04280410125C91A4042B1
:102E0000091A0B0200D447E149024B0A984643468F
:102E1000002B00D189E14046FDF736FD0300083B59
:102E20001F2B00DD7CE120223000D21A4146D04029
:102E3000994002009E400A439D4200DD6AE15D1B0D
:102E40006B1C1F2B00DD94E1202110003500C91AF6
:102E50008E40DA408840DD40711E8E41110007220D
:102E60002843002506433240002A09D00F2333406F
:102E7000042B05D0331DB342B641764289191E009A
:102E80000B0200D43DE26A1C914B55056D0D9A4230
:102E900000D119E18F4AF6080A405707520237431A
:102EA000120B9BE0002E00D0C5E06E1C7605760D5F
:102EB000012E00DC48E16746861ACB1BB042BF41B9
:102EC0007F42B8461F004346FF1A3B00B8461B022C
:102ED00000D55FE137439AD100220024002579E034
:102EE000002E00DCFAE0002F00D18DE0784B9D42EF
:102EF00067D0802367461B041F43BC46382E00DC86
:102F000052E1634613435A1E93411E188642804184
:102F1000404209180B0200D4BEE06D4B01359D42C2
:102F200000D1D2E06B4A73080A4001210E401E43D3
:102F30005108D30707221E43324095E71E0016436F
:102F400000D045E740E7624B9D423AD08023674678
:102F50001B041F43BC46382E00DDEBE01F2E00DCB7
:102F60003AE133006746203BDF403B00202E05D08E
:102F70004027BF1B6646BE40324390464646721EFF
:102F800096413343DAE0002B00D114E26346134349
:102F900000D168E180234E07C008C9081B0306431F
:102FA000194208D06046C008184204D163460100A7
:102FB000D2085E071643F3009946C900720F444DCC
:102FC00011434B46DE08424B4F073743CA089D4228
:102FD00000D16EE012036D05120B6D0D002112037E
:102FE000130B0A0D12051A433B4B2D0513402B43BF
:102FF0005B00E4075B082343380019003CBC9046A3
:103000009946A246AB46F8BD6346134311D0731EE2
:10301000002B00D007E1861886428041614440427F
:10302000091801250B0237D502257BE73E006146D2
:1030300091463500C5E75C46002D00D0E1E00B006D
:103040000343F3D0731C00D1ACE1214B9F4200D16C
:103050003AE1F343382B00DD6FE11F2B00DD8CE1FB
:1030600020250E00ED1AAE40B0460600AA46DE400E
:10307000454635432E005546D940A8406346451E77
:10308000A8415B1A9C463043161AB24292416346ED
:103090005242991A3D00B4E607223240002A00D07D
:1030A000E4E60B4BF6084F073743CA089D4200D0B1
:1030B00090E73B00134300D1A6E180231B031A4392
:1030C0001203120B024D89E715000022002785E745
:1030D000FF070000FFFF7FFFFFFF0F80002E00D0E3
:1030E000C7E06B1C5E05760D012E00DCF0E0C84DDC
:1030F000AB4200D1B9E085180A008542894162449B
:10310000494251180722CE076D082E434908324024
:103110001D00A9E6BF49ED1A114007223240A3E67F
:10312000320028388240002686E63000FDF7ACFBEE
:10313000203073E6634613435A1E9341C61AB042C9
:1031400080414042091A5CE60E0067460643174379
:10315000002D5ED1002E00D0F3E0002F00D11EE143
:103160005C46614691462CE7A94FBE427BD01E00CB
:10317000F1E610001F3DE840202B03D04021CB1A80
:103180009A401643731E9E41072206433240002197
:10319000002583E7161A6346B2428041591A40421D
:1031A0000B1A98465C4632E61F2E00DDABE0202766
:1031B000BB1B9A4663465746BB40994613004F4691
:1031C000F3401F433B005746BA40571EBA411343D2
:1031D0006246F240891898E62027BB1B9A46634650
:1031E0005746BB40994613004F46F3401F433B00F0
:1031F0005746BA40571EBA4113436246F240891AF5
:103200009CE7834B9F425FD080252D047342294366
:1032100020E7002E0CD1002F00D1D0E05C466146A3
:1032200091467B4DCDE67A4FBE421CD01E0065E62E
:10323000002F18D0C0084E0706438020C90800039D
:10324000014208D06346DC08044204D12100DA467A
:10325000D2085E071643F300994601245346C9007D
:10326000720F11431C406A4DABE61D00002200277F
:10327000B4E6002D59D10B00034300D1D6E6731CF0
:1032800000D1B2E0624B9F421ED0F343382B6FDC7B
:103290001F2B00DD97E020250E00ED1AAE40B04652
:1032A0000600AA46DE40454635432E005546A84056
:1032B000D940451EA8418C440643B6189642924117
:1032C000514261443D0025E63D006146914678E665
:1032D0000B000343002D00D055E6002BF5D06346CC
:1032E000134300D16DE68618864280416144404216
:1032F000091800220B0200D4D0E6464B01351940D4
:10330000B2E5B1465DE633006746203BDF403B0057
:10331000202E05D04027BF1B6646BE403243904654
:103320004646721E96413343EFE5394B9F42CBD060
:1033300080252D0473422943A8E70843411E884194
:10334000A2E6002F00D13CE66346861ACF1AB042AF
:103350009B415B42FB1A98461B024ED5161A6346E8
:10336000B2429241591A5242891A5C4600227BE5C8
:1033700001430E00711E8E419FE71D000E00203D8F
:10338000EE40B046202B04D04025EB1A994008436C
:10339000814648464346411E8841184374E6002250
:1033A000002417E6161A6346B2429241591A524255
:1033B000891A3D0025E561469146154D01E68022BA
:1033C0000024120379E61D000E00203DEE40B046B9
:1033D000202B04D04025EB1A9940084381464E46E5
:1033E0004346711E8E411E4367E7861896429B41F5
:1033F00061445B42C9183D008CE547463743CED057
:1034000007224146324049E600273A00E6E5C04639
:10341000FF070000FFFF7FFF70B50C4E0D031C037C
:1034200049005B002D0B490D240B5B0DB14208D008
:10343000064900208B4203D114432000441EA041C2
:1034400070BD05430120002DFAD1F1E7FF07000010
:1034500030B5144D0A034B00120B5B0DC90F00244D
:10346000AB4211DD104CA34210DC802464032243E4
:103470000E4CE41A1F2C0CDD0D48C31ADA40130061
:103480005C42002900D11C00200030BD094BCC1843
:10349000FAE7094DE040AC4663449A401300034309
:1034A000EEE7C046FE0300001D04000033040000E8
:1034B00013040000FFFFFF7FEDFBFFFF70B5002846
:1034C0002DD0C317C5185D40C40F2800FDF7DCF9E7
:1034D000154B1B1A5B055B0D0A2815DD0B38854063
:1034E00000222D032D0B002110002D030A0D2D0BA2
:1034F00012052A430D4D1B052A4013435B00E407C8
:103500005B082343190070BD020029001532914069
:103510000A000B21081AC5402D032D0BE3E70024F8
:10352000002300250022DEE71E040000FFFF0F80BD
:1035300010B5041E25D0FDF7A7F9144B1B1A5B0527
:103540005B0D0A2812DD0B38844000222403240B73
:103550000021100024030A0D240B120522430C4CF9
:103560001B05224013435B00590810BD02002100D7
:10357000153291400A000B21081AC4402403240B81
:10358000E6E7002300240022E2E7C0461E04000014
:10359000FFFF0F804100090E4B1C70B5DBB24602E5
:1035A000750AC40F012B14DDE0239B006D07360B59
:1035B000CB1800210A0D280012051C4D32435B0573
:1035C0002A405B0813435B00E4075B0823431900B0
:1035D00070BD002914D1002D1ED02800FDF754F92C
:1035E0000A281CDC0B232A001B1ADA4003001533BF
:1035F0009D400F4B12031B1A5B05160B5B0DD8E7A2
:10360000002D06D0320B802636036D071643094B7A
:10361000CFE7084B0026CCE700230026C9E70300CC
:103620002A000B3B9A400025E3E7C046FFFF0F80CE
:1036300089030000FF070000F0B54C00640D0B0388
:10364000621C5B0A460F5205C90F1E43C500520D8E
:10365000012A29DD374BE718FE2F1CDC002F3BDD4C
:103660008001431E98410722F3006D0F03432B4353
:103670001A40002A04D00F221A40042A00D0043332
:103680008022D2041A4024D00137FAB2FF2F02D090
:103690009B01580A01E0FF2200204002D205400AA7
:1036A000C90710430843F0BD3543002C04D1002D59
:1036B0000AD100220020F0E7002DECD08020C003CA
:1036C0003043FF22E9E7002400235B02580AE2B2FC
:1036D000E3E7DB083C00F8E73B001733F3DB80232C
:1036E0001B0433431E26F61B1F2E14DD02225242FA
:1036F000D71B1A00FA401700202E04D00E4A944619
:103700006444A3401D432B005D1EAB4107223B4395
:103710001A400027ADE7094A2800A21895409340B7
:103720006C1EA541F04007222B4303431A4000279B
:103730009FE7C04680FCFFFFA2FCFFFF82FCFFFF6B
:1037400010B5002903D1FDF79FF8203002E0081CD6
:10375000FDF79AF810BDC046F0B54E465746DE4616
:103760004546E0B50F00002183B006008946002FD2
:1037700006DA3900002746428F4101214942894635
:10378000002B07DA4946C943100089461900002377
:1037900042428B4134003D0092469846BB4269D874
:1037A00066D041465046FFF7CBFF834639003000D4
:1037B000FFF7C6FF5B461B1A9C46203B9B4600D585
:1037C00075E05146584681400B00514660468140A5
:1037D0000A00BB4261D85ED034003D005946A41AAD
:1037E0009D41002900DA7AE00021002001260090A6
:1037F000019159468E400196614601268E406146F0
:103800000096002950D0D90756085F080E4363463A
:103810000EE0AF4201D1A6420CD8A41BBD4101214C
:1038200024196D410022013B64185541002B06D03C
:10383000AF42EED9013B24196D41002BF8D100981D
:1038400001995B4600196941002B3DDB2E00DE40EB
:1038500063462C00DC405B46002B4BDB34005D46AE
:10386000AC4023006446A6403200801A994103E030
:10387000B24296D9002000214B46002B04D0030011
:103880000C0000215842A14103B03CBC904699462F
:10389000A246AB46F0BDB1429ED900210020009067
:1038A000019161460029AED100980199E4E72023F7
:1038B000624651469B1AD940404600916146884075
:1038C000030000990B4380E7624620239B1A2A00DD
:1038D0009A40260013006246D6401E43B8E7614670
:1038E00020260127761A00200021F7400090019140
:1038F000019781E76746202362463500BC409B1A4A
:10390000DD4023002B43ADE7024670B50A43920722
:103910002AD11E4DEE0104C808C9541B94433440FB
:1039200017D0D0B2D9B2401A2106014310D190B2BB
:1039300099B2401A210401430AD110021902000A67
:10394000090A401A2102014302D1100E190E401A31
:1039500070BD9A42DFD010BA19BA884201D901204D
:1039600070BD0020C04370BD02780B78013001317A
:10397000002A09D09A4207D102780B780130013130
:10398000002A01D09A42EFD0D01A70BD0101010186
:103990007FB503F0D1F8284C06002368C01AFEF763
:1039A0001BF82649FDF7E0FA051CFFF7F3FD244A52
:1039B000244BFCF71BFF002805D10021281CFCF735
:1039C00045FF002800D0204D2660204C200000F04C
:1039D000CBFF002829D002AA03AB01A9200000F0E8
:1039E0006BFF1B4B03981968FDF7C8FD0021061CEF
:1039F000FCF736FF0124002818D08021301CC905AF
:103A0000FCF71AFF002800D1041CE4B2002C00D0FF
:103A10000026104C311C281CFDF77EFC0E49FDF7DA
:103A20007BFC2168FDF706F920607FBDC021301CBA
:103A30000906FCF715FFE5E74830002000007A444E
:103A40009A9999999999B93F0AD7233CB4150020BE
:0C3A500038300020783200206666E63F27
:103A5C0010B50021092003F037F9022003F084F897
:103A6C000121092003F030F90A2003F07DF8002130
:103A7C00092003F029F90B4A0121082003F084F9ED
:103A8C0000280CD0FFF714FD074A084BFEF704FF83
:103A9C000022074BFEF700FFFFF7D4FC10BD0120FE
:103AAC004042FBE710270000006F8104C58FA13F47
:043ABC000000E03FE7
:103AC000F8B5012700245A257F42114E210030000D
:103AD00000F03CFEC82003F049F8FFF7BFFF431C8D
:103AE00001D12E30FF30B84201DD250007001E3421
:103AF000D22CEAD15A21300000F028FE9620400056
:103B000003F034F828005A38FDF71CFFF8BDC04612
:043B10000633002058
:103B140010B50C00FF21FF2802DCC143C917014086
:103B2400022003F04BF8FF21FF2C02DCE143C9170C
:0A3B34002140072003F042F810BD05
:103B3E0010B50121032003F0C6F80021042003F084
:103B4E00C2F80121052003F0BEF80021062003F083
:043B5E00BAF810BDE4
:103B640070B50500FFF7E9FF19491A4B08781A4A9E
:103B7400002803D1106818600120087011681868C3
:103B8400FDF7FAFC011CFDF753F81449041CFCF77B
:103B940051FE002807D11249201CFCF75FFE0028C3
:103BA40002D00F4C00E00D4C2800FDF7C9FE211C8B
:103BB400051CFDF7E1FCFDF7A3FE0600211C281CF3
:103BC400FDF736F8FDF79CFE3100FFF7A1FF70BD4D
:103BD400003300203C30002078320020000020C256
:043BE400000020427B
:103BE80010B50021032003F071F80121042003F02F
:103BF8006DF80121052003F069F80021062003F083
:043C080065F810BD8E
:103C0C0010B50121032003F05FF80021042003F01C
:103C1C005BF80021052003F057F80121062003F082
:043C2C0053F810BD7C
:103C300010B50021032003F04DF80021042003F00B
:103C400049F80021052003F045F80021062003F083
:103C500041F80021022002F0B3FF0021072002F00A
:043C6000AFFF10BDE5
:103C6400F0B53A4F85B03968FCF7E2FF384D061CD1
:103C74003849280002F019FE301CFFF789FC0B00BC
:103C8400022102000091280002F016FF02F052FF08
:103C94000390FFF77BFE3968301CFDF76DFC0021B3
:103CA400041CFCF7DBFD01236A46D37200281CD0F8
:103CB4008121201CC905FCF7C7FD002801D16B46F2
:103CC400D8726B46DB7A002B0BD102F033FF039BD7
:103CD400C01AFA231B0198420CD91F49280002F08C
:103CE400F5FDFFF7A3FF05B0F0BD1C49201CFCF750
:103CF400BFFDE2E70021201CFCF7B0FD002814D032
:103D0400FFF770FF8C21022002F058FF8C2107205E
:103D140002F054FF02F00EFF040002F00BFF001B40
:103D24003B2805D8FFF732FEF7E7FFF76DFFE9E719
:103D3400FFF77CFF02F0FEFE040002F0FBFE001B16
:103D44006328A6D8FFF722FEF7E7C04678320020A2
:103D5400A81E0020D4650110E1650110000080C098
:103D640037B5FFF713FEFFF777FE142801DC431C79
:103D740003D16E20FFF7F4FE37BDFFF757FFFA209B
:103D8400400002F0F1FE1D4C1D49200002F09EFD92
:103D9400FFF794FE1B49051C200002F086FD281C39
:103DA400FFF7F6FB0B00022102000091200002F055
:103DB40083FE0021281CFCF751FD0124002817D0A4
:103DC4001149281CFCF74AFD002800D1041CE4B268
:103DD400002C02D0281CFFF743FF0C4B1A680C4B35
:103DE4001A60FFF723FFFA20400002F0BDFEC3E78C
:103DF4000849281CFCF71EFDE6E7C046A81E002063
:103E040004660110226601100000A04078320020F0
:083E14003C3000200000A0C0BA
:103E1C0010B5024800F0D0FB10BDC04606330020A0
:103E2C00E121F0B5344C85B04902200001F052F983
:103E3C000121032002F00AFF0121042002F006FFF9
:103E4C000121052002F002FF0121062002F0FEFEF6
:103E5C000121022002F0FAFE0121072002F0F6FEF9
:103E6C000121092002F0F2FE0021082002F0EEFEF2
:103E7C00224D0A21280000F0DFFB28005A2100F017
:103E8C005FFC1F4F380000F0CEFD002800D1FEE78C
:103E9C001C492000FA2602F015FD0025B60038005A
:103EAC0000F05CFD00280AD003AB02AA01A938007F
:103EBC0000F0FCFC281C0399FCF7B6FE051C012045
:103ECC00013E02F04DFE002EE9D10F49281CFDF7F2
:103EDC0045F80E4B0E491860200002F0F3FC02F07E
:103EEC0025FE0C4B1860FFF79DFEFA20800002F0B7
:103EFC0037FE05B0F0BDC046A81E002006330020DA
:103F0C00B41500203266011000007A4438300020CD
:083F1C004D6601104830002041
:103F24000B000F2130B50122172487B069440B70B0
:103F3400C3686C44186803680092DD682300A847CE
:063F4400207807B030BD3B
:103F4A00F8B5427A036805000C00CFB29B680E0AE6
:103F5A00002A0FD13900FF2798472B68BC43044336
:103F6A009B68310028009847030220003840184314
:103F7A0080B2F8BD31009847FF262B680002344012
:103F8A0004439B68390028009847B4432043EFE76D
:103F9A0013B5C368186803680092DC680B00A04771
:023FAA0013BD45
:023FAC0070475C
:023FAE0070475A
:023FB000704758
:103FB20037B5436804000D0000910192994204D183
:103FC2006B469A8803899A4210D06B461A79E36845
:103FD2000821186805F09CFAE3682900186805F0C2
:0E3FE200B3FA201D062269460DF0A7F837BD80
:103FF000C36810B50400002B0BD01868002808D047
:1040000003685B6898470421E06809F081F80023A1
:04401000E36010BD9C
:0E40140010B50400182109F079F8200010BD45
:1040220037B5C5680400002D04D1042009F03FF81B
:10403200E0600560E3681B68002B11D1302009F0B5
:1040420036F81422A35E05001021625E1220215E62
:10405200012040420090280005F01FFAE3681D602D
:0240620037BD68
:10406400F7B50C2002F050FD07000B2002F04CFDC8
:1040740006000D2002F048FD00240122184B194DC2
:104084001F825E82184F194E5C6031001C725A7296
:1040940098823A00180008351D60DC6008F0E4FDE1
:1040A400192002F031FD00901C2002F02DFD01903A
:1040B4001D2002F029FD01220D4B31005A726A467F
:1040C400128898821A826A4692885C605A821C72AC
:1040D4003A0018001D60DC6008F0C6FDF7BDC0465C
:1040E400DC1500205466011048020020B13F001086
:0440F400F41500209F
:0440F80000207047ED
:0240FC0070470B
:0C40FE0010B50368C9B21B68984710BDDC
:0E410A008B23002249009B00C161C250704708
:0C41180010B5036801211B6B984710BD17
:0C41240010B503689C6B0123A04710BD80
:1041300030B58B248025A400025903006D000020B7
:10414000AA4206D0501C185101209B182D33FF3372
:04415000197030BDF5
:024154007047B2
:084156008C239B00C15070474F
:08415E008D239B00C150704746
:104166000300FC33DA6A002A04D09B6A0130C018C7
:0A417600C07F704701204042FBE7C4
:1041800070B5036804005B6A9847402008F090FF10
:1041900005001A23E25E1823E15E05F057F8656119
:0241A00070BDF0
:0A41A20010B50C220CF0C9FF10BD8F
:1041AC0070B58B25AD00435906001400D018802241
:1041BC005200904200D9D41A30002D30FF30C01874
:1041CC0022000CF0B5FF735920001B19735170BD00
:1041DC0070B5050040690C00002801D004F056FFB2
:0E41EC002869002802D0210005F072F870BD8D
:1041FA0010B50400FC3408F0B6FAE46A08F0C9FA0B
:04420A00200010BDC3
:10420E0010B5040008F0ADFA2300FC33DA6A002A78
:10421E0011D0DA6A002A0ED09A6A0134A4189A6A6A
:10422E00E47F0132D2B29A62DA6A013ADA6208F0B7
:0C423E00AEFA200010BD01246442F8E735
:10424A0070B504004069002804D00368DB68984709
:10425A00002363612369002B13D08E25AD006059BA
:10426A0009F001FA605909F01FFA6059002802D0D2
:10427A0003685B6898470C21206908F044FF002313
:04428A00236170BD7F
:10428E008B2330B502000C0001259B00C35885B06E
:10429E004069D1696C40002B07D100942B0003AA12
:1042AE0004F023FFC0B205B030BD2D32FF320094B2
:0C42BE0004F0FBFE431E98414000F4E7B2
:1042CA00F0B514008022C3B005005200944200D910
:1042DA00140001225340009302AE49002300320029
:1042EA00686904F004FF002817D12B00FF27FC336C
:1042FA000135A04212D08021DA6A49008A420AD0E6
:10430A005A6A315CAA18D1775A6A01323A405A621B
:10431A00DA6A0132DA620130EBE70024200043B0A6
:02432A00F0BDE4
:10432C00F0B50400FF27C1B0206904F0DEFF0328BC
:10433C00FAD8FCF793F85C0222228D239B00E358F9
:10434C00002B00D098478B26B600A359002BEBD03E
:10435C0008F008FA2100A5592D313D402A00FF3103
:10436C0068460CF0E5FE0023A35108F011FA2A0070
:10437C006946206904F0C1FFD6E7F022694620693E
:10438C0004F0B7FF050008F0EDF923000022FC3320
:10439C005A62601C9A62DA62AA4215DA8026D96ADD
:1043AC007600B14210D0D96AB1420BD06E46596A30
:1043BC00B65C4118CE77596A013139405962D96AD5
:1043CC000131D9620132E7E708F0E2F923682000F5
:1043DC001B6998470028A7DD8C239B00E558002D0E
:1043EC00A2D0236820001B699847A8479CE702F0DD
:0443FC00CBFB99E777
:064400000023C3607047B9
:0E440600C36810B5002B01D09B68984710BD0D
:10441400FA2370B500254283802204009B00836048
:104424000C4B45600833056145610360018352000C
:10443400290020300CF012FF2300FC335D629D62E2
:10444400DD628B239B00E5500433E5500433E550D3
:08445400200070BDA8660110F4
:0E445C0010B504000021FFF7CDFF200010BDB9
:0C446A0010B50400FFF7CAFF200010BDD1
:1044760010B542680368086854100019D20701D5C0
:084486000268D358984710BDED
:0C448E0010B501000430FFF7EFFF10BD77
:10449C0010B5024BC3601CC91CC010BD9066011046
:1044AC0010B586B00400684603910092436004ABDB
:1044BC0006C806C3200003A9FFF7EAFF200006B0D8
:0244CC0010BD21
:0C44CE0013B50400FFF7EBFF200016BD43
:1044DC0070B5036888B05B6A04000E0098470C2026
:1044EC0008F0E0FD05001A23E25E1823E15E04F0FB
:1044FC00D5FE71002561280004F0EEFEBC2008F00A
:10450C00D1FD0500134B08C0FFF7A2FF28000021C6
:10451C00403009F01FF82800543008F0B7FF802213
:10452C000D4B2800009312010023182109F090F87C
:10453C008E239B00094AE5502100002304A8FFF7B5
:10454C00C0FF04A9280009F0EDF804A8FFF787FFC5
:10455C0008B070BD507F01109C6601102D430010F7
:08456C0010B5FFF78EFF10BD32
:0845740010B5FFF7F9FF10BDBF
:10457C0010B5122002F0C4FA0400132002F0C0FAA5
:10458C00210002000148FFF73FFF10BD0C16002070
:10459C0010B50468200009F001FC414241412000A3
:0645AC0009F0F0FB10BD58
:1045B200CB6810B5C360002B01D05B68984710BD73
:1045C400024A1378591C1170037070477E32002020
:1045D400F7B5CCB20600012120000092019302F04D
:1045E40039FB200002F090FA0700902008F05EFDED
:1045F4000400083005F060FB2000483005F012FB91
:1046040023000122883352421A60042008F04EFD30
:104614000023390003808370050007F010FA307816
:10462400064B8200D4502023009A25609B1A737095
:104634006023019A9B1AB370FEBDC04698200020E7
:104644009623882210B51B019200FFF7C1FF10BD0D
:0C46540010B50400FFF7ABFF200010BD04
:1046600010B542680368086854100019D20701D5D4
:084670000268D358984710BD01
:0C46780010B501000430FFF7EFFF10BD8B
:1046840010B5024BC3601CC91CC010BD0C670110DF
:1046940010B586B00400684603910092436004ABF1
:1046A40006C806C3200003A9FFF7EAFF200006B0EE
:0246B40010BD37
:0C46B60013B50400FFF7EBFF200016BD59
:1046C400F0B503781D4E9B009C598BB00500002C5F
:1046D40031D001278823C7579B00DF1B8F4207DC9B
:1046E40002279623C7571B01DF1B8F4200DD0F00F3
:1046F400230088331A680F3F013217D1104A1F6014
:104704002100002306A8FFF7D4FF06A902A8FFF79B
:104714009FFF20000B4A4830002302A905F092FABB
:1047240002A8FFF7A0FE06A8FFF79DFE2B789B00CA
:10473400F35888331F600BB0F0BDC04698200020AA
:0847440091470010204E000017
:10474C000F4B13B50400994215DCB420B42902DCDC
:10475C00C843C017084001228823A2569B0002219F
:10476C009B1A962261561201521A00920021B42211
:10477C0001F075FF01002000FFF79EFF13BDC0463E
:04478C001F02000008
:1047900070B504008AB0174A0100002302A8FFF791
:1047A0008AFF230088331868FEF788FE0022124B28
:1047B000FDF76EFCFEF740FF02A9061C06A8FFF7F6
:1047C00049FF0E49301CFCF7A7FD2500FCF71EF938
:1047D000083502000B00280006A905F035FA06A8E6
:1047E000FFF743FE02A8FFF740FE2000FFF7D6FECA
:1047F0000AB070BD9D45001080842E41002474498C
:0848000010B5FFF739FF10BDF0
:0848080010B5FFF7F9FF10BD28
:024810007047EF
:10481200F7B5456804000F0001921E00002D21D05B
:104822002B6882694169DB6928009847E3680021A7
:10483200D8B202F04EFA80216068394303689B685F
:10484200984760683200036801991B699847E368DA
:104852000121D8B202F03DFA606803681B6A9847EA
:10486200012027E00068217A0368DB6A9847206804
:10487200390003681B6898472068290003681B6B8E
:104882009847051E14D12068217A03683200DB6B39
:10489200984703002800B3420CD1019DEE18AE42A6
:1048A200DED0206803685B69984728700135F6E717
:0648B20001204042FEBDA2
:1048B80073B50E0015001C006A4606232221FFF777
:1048C800A4FF002804D11D4B33602B60236076BD04
:1048D8006B460020185EFEF7EDFD0022184BFDF731
:1048E800DDFFFC2300229B05FDF7D8FFFEF7A0FEA5
:1048F8006B4630600220185EFEF7DCFD0022104B8C
:10490800FDF7CCFFFC2300229B05FDF7C7FFFEF750
:104918008FFE6B4628600420185EFEF7CBFD002250
:10492800074BFDF7BBFFFC2300229B05FDF7B6FFF5
:10493800FEF77EFE20600120C9E7C0460000C07F68
:0449480000409F404C
:10494C0013B56B46DC1D22000123FFF75CFF012829
:0C495C0001D1207816BD01204042FBE78D
:0E49680010B51E21FFF7EEFF8007C00F10BD37
:1049760070B5040040680E00150000281ED00368BC
:10498600A269DB6961699847E3680021D8B202F041
:104996009EF96068310003689B6898476068290043
:1049A60003689B689847E3680121D8B202F08FF943
:1049B600606803681B6A9847012070BD2068217AE9
:1049C6000368DB6A98472068310003681B689847CC
:1049D6002068290003681B689847206803685B6B9A
:0849E600984743425841E8E7FD
:1049EE0070B545680400002D0ED02B6828001B6B97
:1049FE009847E3680021D8B202F065F9E06800211B
:104A0E00C0B202F022F970BD2A001121FFF7ACFFEF
:104A1E002A0010212000FFF7A7FF206803685B6AB9
:044A2E009847F0E7CE
:104A3200436810B50400002B1ED0C3680121D8B210
:104A420002F009F9E3680121D8B202F042F9606884
:104A52000368DB6A98470F212000FFF776FF6C2876
:104A62000ED00F212000FFF770FF692808D0200028
:104A7200FFF7BCFF002010BD00680368DB69E9E7AF
:104A82004C2211212000FFF775FF4A22102120003D
:104A9200FFF770FF002216212000FFF76BFF0922AB
:0C4AA20017212000FFF766FF0120E4E769
:104AB0000848094B6A2210B5036000230272074AB6
:104AC00043600376013342614376054A054908F0A5
:104AD000CDF810BDB41500200C16002000093D00D3
:084AE0004802002011480010FB
:104AE80070B5124C12492068124A134B884213D1F0
:104AF8006068904210D1A06898420DD100250D2021
:104B0800256001F0FFFF04000C480AF0DBFA0300FF
:104B180001202900A0409847216009480021A3608E
:104B280062600AF03DF90023236070BD2C1000205C
:104B3800DE8116F0299B72BD7ABE59D3554200001A
:044B480020A10700A1
:104B4C001B220A4B1A600A4B023A1A60094B0132BB
:104B5C001A60094B08321A60084B05321A60084B70
:104B6C00033A1A60074B013A1A607047D8150020B7
:104B7C00D4150020D0150020A4150020A815002065
:084B8C00AC150020B01500205B
:104B94000B00F0B50F2700260E33023902003A400D
:104BA400D5B22C0000093034092A00DD07341C700A
:0A4BB4005E70023B9942F1D1F0BDA2
:044BBE001E207047FE
:024BC20070473A
:104BC40013B50400684609F07DFB21000098FFF747
:104BD400DFFF210001981031FFF7DAFF202016BD16
:104BE40010B50D2001F090FF040004480AF06CFA9F
:104BF400030001200021A0409847C0465542000010
:104C04009A2370B55B00C35C05001400002B1CD113
:104C14000368DB699847F0210C4B09012140C9184E
:104C24004B1E9941F0232340303B5A4253410F22FB
:104C34000731144001330D3A012C02D0023C624288
:104C44006241A869006804F0E5FD70BD00FDFFFF46
:104C54009A2310B55B00C35C0400002B05D1A36943
:0C4C6400186804F007FE0028F9D010BD0D
:104C70009A2370B55B00C55C0400002D14D18369D4
:104C8000002B0CD01868002809D00368DB6898470F
:104C9000A36904211D60A06908F03AFAA561002308
:0A4CA000FC34E3622363636370BD1C
:104CAA009A23F7B55B00C35C0400002B2AD1802548
:104CBA00FF276D00A369186804F0BDFD002821D004
:104CCA0007F051FDA369012218686B46DE1D0368CF
:104CDA0031005B6998472300FC335A6BAA420ED015
:104CEA005A6BAA420BD02200D96A30782832505423
:104CFA00DA6A01323A40DA625A6B01325A6307F0D1
:064D0A0048FDD7E7F7BDEC
:104D10009A2210B552000300805C002806D00120C2
:104D200001F024FF054801F09EFA10BD9B69002B9D
:104D3000FBD01868431E9841C0B2F6E7481800201F
:104D400070B504000D0001F08EFA030000208342CC
:104D500004D0236829001B6C2000984770BD08B45C
:104D6000024B9C46024BC01A08BC6047414D0010E4
:044D700040010000FE
:104D740037B56B46DC1D9A2321705B00C35C0500CC
:104D8400002B04D0C9B20A48FFF7D8FF3EBDAB6977
:104D9400186804F06FFD0028F9D0AB690122186887
:104DA400210003681B6998470130431E9841EDE7D1
:044DB400481800207B
:104DB800F7B5060001911700002401F050FAA0424F
:104DC8000DD0A7420BD93D1B402D00D94025019B92
:104DD8002A001919300000F07DFF6419F1E720005E
:104DE800FEBD08B4024B9C46024BC01A08BC604783
:084DF800B94D0010400100005C
:104E00009A2370B55B00C35C05000E001400002BF4
:104E100005D00F48FFF7D0FF0400200070BDAB693C
:104E2000186804F029FD0028F9D0AB6901211B683E
:104E300018005B6F74301B6B9847AB6922001868D1
:104E4000310003681B699847431CE6D10024E4E75E
:044E500048180020DE
:104E5400F0B5C3B0050001F0EFF9932380229B0065
:104E6400E918CB6852000400D31A984201DDCC68DB
:104E7400141B01AB220002A92800A82601F029F87E
:104E84000021019802AB241A76001C199323802276
:104E94009B00EB18DF685200974211D081420FD07B
:104EA400DF6897420AD05A68675CAA1897555A680F
:104EB4000132D2B25A60DA680132DA600131E5E7D0
:044EC40043B0F0BD4A
:104EC80070B5040000F0E8FB2000FFF7BFFF932354
:104ED8009B00E318DD68200000F0E5FB280070BDAA
:104EE80008B4034B9C46034BC01A08BC6047C04635
:084EF800C94E0010400100004A
:104F00009A2310B55B00C35C0400002B05D0064853
:104F1000FFF7DAFF0400200010BDFC3407F028FC86
:0C4F2000646B07F03BFCF6E7481800202B
:104F2C0070B5040000F0B6FB2000FFF78DFF932353
:104F3C009B00E318DA68002A09D0A8229B6852006B
:104F4C00E3189D5C200000F0ACFB280070BD01252F
:104F5C006D42F7E708B4034B9C46034BC01A08BCE0
:0C4F6C006047C0462D4F001040010000BF
:104F78009A2310B55B00C35C0400002B05D00B48D6
:104F8800FFF7D0FF0400200010BD07F0EDFB230061
:104F9800FC335A6B002A05D01B6B2834E45C07F0FD
:104FA800F9FBF0E701246442F9E7C04648180020FD
:104FB80070B5040000F070FB2000FFF747FF932353
:104FC8009B00E318DA68002A10D0A8219A684900E3
:104FD800A218555C9A680132D2B29A60DA68013A2E
:104FE800DA60200000F05FFB280070BD01256D42EB
:104FF800F7E708B4024B9C46024BC01A08BC60474E
:08500800B94F00104001000047
:105010009A2310B55B00C35C0400002B05D00E483A
:10502000FFF7CAFF0400200010BD07F0A1FB23001A
:10503000FC335A6B002A0CD01A6B2834A45C1A6B10
:105040000132D2B21A635A6B013A5A6307F0A6FBD7
:0C505000E9E701246442F9E74818002059
:10505C00802210B50400520000210CF0FBF8230054
:0E506C000022FC335A6020009A60DA6010BD0A
:10507A0010B542680368086854100019D20701D5B0
:08508A000268D358984710BDDD
:0C50920010B501000430FFF7EFFF10BD67
:1050A00010B5024BC3601CC91CC010BD18670110AD
:1050B00010B586B00400684603910092436004ABCB
:1050C00006C806C3200003A9FFF7EAFF200006B0C8
:0250D00010BD11
:0C50D20013B50400FFF7EBFF200016BD33
:1050E0009A2370B55B00C35C86B004000D00002BF2
:1050F00036D18669002E04D1042007F0D9FFA061C3
:105100000660A369186800282CD1783007F0D0FF1A
:1051100006002223E25E2023E15E2B0004F06CFFF8
:10512000A3691E602423E25E531C06D0A0692621D9
:10513000635E0068032104F06DFFA3691D68002D04
:105140000ED00026094A3300210002A8FFF7C1FF54
:105150002800320002A904F0FBFB02A8FFF785F942
:1051600006B070BD290004F046FBDBE7AB4C001035
:0851700010B5FFF78EFF10BD22
:0851780010B5FFF7F9FF10BDAF
:10518000F0B53A4B3A4DFA2685B000240833009327
:105190002B602023B6006C60AE6036486B61AC615A
:1051A000EC61FFF75BFF9A2201205200A85401F046
:1051B000ADFC0700200001F0A9FC2F4D20232F8417
:1051C000012700997F426C60AE6068842B4829609B
:1051D0006B61AC61EC61AF84EF84FFF73FFF9A2213
:1051E00019205200AC5401F091FC01901A2001F0FA
:1051F0008DFC02901C2001F089FC03901B2001F023
:1052000085FC20231E4D00996B616B4629609988AF
:105210006C6029841989AE6069849989E884194889
:10522000A984AC61EC61FFF719FF9A2219205200A2
:10523000AC5401F06BFC01901A2001F067FC2023B4
:10524000114D00996B616B469B8868846C60AE6001
:105250000E482960AC61EC612B84AF84EF84FFF7CA
:10526000FDFE9A225200AC5405B0F0BD2467011037
:10527000A81E0020D01E0020001B0020281B00209C
:10528000381C0020601C0020701D0020981D00208C
:045290000020704743
:02529400704761
:0252960070475F
:1052980010B5054BC458002C05D023682000DB6AE4
:0C52A8009847A468F7E710BD8C050000D3
:1052B40070B50D00054BC458002C06D0236820009F
:1052C400DB6829009847A468F6E770BD8C050000E8
:0852D40000487047F467011067
:1052DC0010B50400044B036006F09EF9200006F0A4
:0C52EC00D1FA200010BDC046746701100C
:1052F80010B50400FFF7EEFFB2212000C90007F047
:0653080003FF200010BDB0
:10531000F0B50F4B0500C458002385B0019102AAD7
:10532000D61C002C12D0236801991F69320003ABF0
:105330002000B84731780300042905D0039A2800DB
:1053400005F016FC05B0F0BDA468E8E73178F5E794
:045350008C050000C8
:1053540070B50E0005000021002A0CD10A4BC45878
:10536400002C0ED0236800225B693100200098478E
:10537400002804D00121280005F0C4F970BDA468F8
:0C538400EEE72100F7E7C0468C050000B2
:1053900070B50E0005000021074BC458002C07D043
:1053A0002368310020009B699847A4680100F5E755
:0C53B000280005F0B3FA70BD8C05000069
:1053BC00F8B505000E001700084BC458002C07D098
:1053CC0023682000DB693A0031009847A468F5E7B0
:1053DC002800012105F008FBF8BDC0468C05000033
:1053EC00F0B5002187B0040005F034FD6B460022B7
:1053FC00DA80238901A9A588E28889260B731B0A08
:10540C004B730F4BEF27CB81042376000E80113E9C
:10541C00FF3ECE704E710D728A72FF330A34013E1C
:10542C002D0A120AC871CA720F718E714D720B82DD
:10543C00122220000BF07CFE200007B0F0BDC0460D
:04544C000102000059
:10545000F8B506000C000500002730000CF0F4F948
:10546000AB1B984205D92B78677023700135023445
:08547000F3E74000C0B2F8BDF3
:1054780070B504000C4BC558002D07D02B682800C8
:105488005B6A9847002802D1AD68F5E72800A9258E
:10549800064BED006353064BE118FFF7D5FF635D3C
:1054A800C0186055601970BD8C050000020300002B
:0454B8004A050000A1
:1054BC0070B5A125064BED004353064B0400C118F3
:1054CC000548FFF7BFFF635DC0186055601970BDDC
:0C54DC00020300000A05000058670110E0
:1054E80070B59925064BED004353064B0400C018D0
:1054F800FFF764FB635DC0186055601970BDC04656
:0855080002030000CA040000C8
:105510000023F0B587B003A98B71B123DB00C35C16
:1055200005000B7101234B71BF33CB713A330B7202
:10553000CE2309249B00154AC7180392380009227C
:105540000BF0FCFD124BEE58002E17D033680021F3
:105550009B6830009847C37882781B021343093B4D
:105560000193CE2301009B00E01828180931019A0D
:105570000BF0E4FD019BB668E418E5E73800054B45
:10558000EC54054B2412EC5407B0F0BD0902FFFFA8
:0C5590008C0500003A0300003B03000003
:10559C0073B504000D00160008F0CCFB80235B00F3
:1055AC00010000932A003300200006F017F9024B8B
:0C55BC002000236076BDC046746701101B
:1055C80010B50E4A04008358002B12D18150B12324
:1055D800DB00E25C48790A71E25C1218E2540B685D
:1055E80008009B6A9847238918182081012010BD5C
:1055F80013009A68002AFBD19960E8E78C0500003F
:105608001FB5040005F020FC0100684604F0CAFD3F
:105618004021684604F040FE074BE458002C06D0B1
:10562800236820001B6A69469847A468F6E768461D
:0C56380004F0BFFD1FBDC0468C05000043
:1056440010B50400FFF7DEFF200005F0E3FB10BDFA
:1056540070B50D4D2B78BFF35B8F0C4CDB0711D469
:10566400280007F015FB00280CD05E220849200012
:10567400FFF792FF280007F02DFB064A0649200099
:1056840007F0F2FA200070BDE41F0020C4280020B7
:0C5694004123000048020020DD520010FD
:0E56A00010B5FFF7D7FF03685B6F984710BD8A
:0E56AE0010B5FFF7D0FF03689B6F984710BD43
:0E56BC0010B5FFF7C9FF0368DB6F984710BDFC
:0856CA0010B504F0F4FE10BD60
:0856D20010B504F006FF10BD45
:0856DA0010B504F0DAFE10BD6A
:0256E20070470F
:0256E40070470D
:0256E60070470B
:0856E800436A7833187870471B
:0656F000FC30806A7047E7
:0456F60001207047D8
:0856FC00004870474C690110E1
:10570400F0B505009BB007AC4B220F002000002130
:105714000BF0A4FD2B00FC339B6A05215A1E934118
:1057240000202E795B421940731CDBB20193AB7BE2
:1057340002932B7B03936B7B0493874200D0A5E0F9
:105744006176534906A86183102161770B39E177AB
:105754002421471D0922F9772527627406A8053AF2
:10576400C019A274033A027006A8C71D0320494B4E
:10577400F8772380BF3BFF3BA370812308AFFA7700
:1057840004275B00A380823BE37162754E3B227663
:10579400A27706A80832121823722A3BD7776372BD
:1057A4000A220333A3723C4B06A8A38102231218D6
:1057B400D1770591073706A97F18FB7706270521BE
:1057C40009A8C77711A801702D2006A94018242123
:1057D400E672A373E674A375E37501702E2006A91F
:1057E400401807702F204018694606700E7912A8D9
:1057F40006703126072006A97618307032267618EE
:1058040005213170332606A9761869460F7A06A950
:105814003770224E102726863726761837700927C8
:1058240014AE377039260427761837703A2676185E
:1058340069460F7906A93770194E1D35268741260A
:10584400761830703B30401805210170432106A8BA
:10585400091868464426007B0870124906A8801976
:10586400018011492800D1874A2206A952186946A5
:10587400097C11704B2206A952181370402219ABEF
:105884001A7021000B320BF057FC28001BB0F0BD3E
:105894000524000009020000020200000340000089
:0C58A400020A000002400000070500009E
:1058B00010B504000A4B08330360FFF7CBFE05F078
:1058C000B1FE2000D03004F084FD20007C3004F0D4
:1058D00080FD2000703004F07CFD200010BDC0462B
:0458E0000469011046
:1058E40010B50400FFF7E2FF94212000490007F0FF
:0658F4000DFC200010BDB8
:0858FA0010B5FFF7DEFE10BD42
:1059040010B50400024B036004F012FC200010BD2B
:045914003C680110DA
:1059180010B50400FFF7F2FF2000282107F0F4FB80
:04592800200010BD8E
:10592C0010B50400024B036004F0FEFB200010BD18
:04593C000C680110E2
:1059400010B50400FFF7F2FF2000342107F0E0FB60
:04595000200010BD66
:1059540010B50400024B036004F0EAFB200010BD04
:0459640024680110A2
:1059680010B50400FFF7F2FF2000382107F0CCFB48
:04597800200010BD3E
:10597C0070B50D000400072217490F300BF0D8FB4F
:10598C0040220221280004F077FC402220730221DF
:10599C00280004F078FC402260730321280004F0F6
